:020000040800F2
:100000000050002005130008551300085513000880
:100010005513000855130008551300080000000090
:100020000000000000000000000000005513000860
:10003000551300080000000055130008A91200081D
:1000400055130008551300085513000855130008F0
:1000500055130008551300085907000851090008F6
:1000600055130008551300085513000855130008D0
:1000700055130008551300085513000855130008C0
:1000800055130008551300085513000855130008B0
:1000900055130008551300085513000855130008A0
:1000A0005513000855130008551300085513000890
:1000B0005513000855130008551300085513000880
:1000C0005513000855130008551300085513000870
:1000D0005513000855130008551300085513000860
:1000E00055130008551300080000000055130008C0
:1000F0005513000855130008551300085513000840
:10010000551300085513000855130008551300082F
:10011000551300085513000855130008551300081F
:10012000551300085513000855130008551300080F
:1001300010B5054C237833B9044B13B10448AFF321
:1001400000800123237010BD00000020000000008B
:10015000A013000808B5034B1BB103490348AFF3D4
:10016000008008BD0000000004000020A01300086B
:1001700080B500AF00F0F6FB0221022000F00EFC7B
:100180000421022000F00AFC0321022000F006FCFA
:10019000002000F045FC0921022000F0FFFB0022B6
:1001A0000021002000F088F900F006F900F0DEFAE6
:1001B00000F05AFC01220021012000F07DF901220B
:1001C0000121012000F078F901220D21022000F028
:1001D00073F901220E21022000F06EF901220F2195
:1001E000022000F069F9002000F028F903461A46C1
:1001F000634B1A80624B1B88DBB2184600F074FC1C
:100200004FF47A7001F026F85D4B1B88312B19D81A
:1002100000220021012000F025FA00220121012006
:1002200000F020FA01220D21022000F01BFA012229
:100230000E21022000F016FA01220F21022000F008
:1002400011FA98E04E4B1B88632B19D8002200212D
:10025000012000F007FA01220121012000F002FA3A
:1002600001220D21022000F0FDF901220E210220C1
:1002700000F0F8F901220F21022000F0F3F97AE0F2
:100280003F4B1B88B3F5C87F19D201220021012002
:1002900000F0E8F900220121012000F0E3F9012239
:1002A0000D21022000F0DEF901220E21022000F0D3
:1002B000D9F901220F21022000F0D4F95BE0304B84
:1002C0001B88B3F5167F19D201220021012000F00E
:1002D000C9F901220121012000F0C4F900220D21F9
:1002E000022000F0BFF901220E21022000F0BAF92D
:1002F00001220F21022000F0B5F93CE0204B1B88C1
:10030000B3F5487F19D201220021012000F0AAF99B
:1003100001220121012000F0A5F901220D21022076
:1003200000F0A0F900220E21022000F09BF901222A
:100330000F21022000F096F91DE0114B1B88B3F548
:10034000806F18D201220021012000F08BF90122D8
:100350000121012000F086F901220D21022000F088
:1003600081F901220E21022000F07CF900220F21E8
:10037000022000F077F9FA2000F004F833E700BF1C
:100380001C00002080B485B000AF78600023FB60C3
:1003900003E000BFFB680133FB607B684FF4FA7237
:1003A00002FB03F3FA689A42F3D300BF00BF14378D
:1003B000BD4680BC7047000080B500AF1E4B9B68F7
:1003C0001D4A43F0010393601420FFF7DBFF1A4B33
:1003D0009B68194A43F400239360174B9B68164AA5
:1003E00043F400339360144B9B68134A43F4802317
:1003F0009360114B9B68104A43F4801393600E4B3B
:100400009B680D4A23F4006393600B4B9B680A4A78
:1004100023F002039360084B9B68074A43F00403F0
:10042000936000BF044B9B689B0803F00103002B03
:10043000F8D100BF00BF80BD0024014080B483B06C
:1004400000AF0346FB71FB79092B1DD8194B5B6B81
:10045000184A23F001035363164B5B6B154A23F0D4
:1004600002035363134B5B6B124A23F00403536381
:10047000104B5B6B0F4A23F0080353630D4B5B6B10
:100480000C4A23F0100353630A4B9B68094A43F458
:100490008003936000BF074B1B685B0803F00103F8
:1004A000012BF8D1034BDB6C9BB218460C37BD46D1
:1004B00080BC70470024014080B483B000AF034685
:1004C000FB710B46BB7113467B71FB79022B00F26B
:1004D000B680BB790F2B00F2B2807B790F2B00F234
:1004E000AE80BB79072B52D8FB79022B37D0022B79
:1004F00000F3A680002B02D0012B18D0A0E0534BB4
:100500001B68BA7992000F2101FA02F2D243114618
:100510004E4A0B4013604D4B1B687979BA799200B3
:1005200001FA02F21146494A0B43136088E0484B36
:100530001B68BA7992000F2101FA02F2D2431146E8
:10054000434A0B401360424B1B687979BA79920099
:1005500001FA02F211463E4A0B43136070E03D4B34
:100560001B68BA7992000F2101FA02F2D2431146B8
:10057000384A0B401360374B1B687979BA7992007F
:1005800001FA02F21146334A0B43136058E0BB797B
:100590000F2B54D8BB79083BBB71FB79022B36D0AB
:1005A000022B4DDC002B02D0012B18D048E02A4B47
:1005B0001B68BA7992000F2101FA02F2D243114668
:1005C000254A0B401360244B1B687979BA79920055
:1005D00001FA02F21146204A0B43136030E01F4B30
:1005E0001B68BA7992000F2101FA02F2D243114638
:1005F0001A4A0B401360194B1B687979BA7992003B
:1006000001FA02F21146154A0B43136018E0144B2D
:100610001B68BA7992000F2101FA02F2D243114607
:100620000F4A0B4013600E4B1B687979BA79920020
:1006300001FA02F211460A4A0B43136000E000BFC0
:1006400000BF0C37BD4680BC704700BF00080140AA
:10065000000C01400010014004080140040C01405E
:100660000410014080B483B000AF0346FB710B4619
:10067000BB7113467B71FB79022B61D8BB790F2BC1
:100680005ED87B79002B2DD1FB79022B1ED0022B5B
:1006900057DC002B02D0012B0CD052E02B4B1B68F7
:1006A000BA79012101FA02F2D2431146274A0B40DE
:1006B000136046E0264B1B68BA79012101FA02F269
:1006C000D2431146224A0B4013603AE0214B1B688B
:1006D000BA79012101FA02F2D24311461D4A0B40B8
:1006E00013602EE07B79012B2AD1FB79022B1CD0E1
:1006F000022B26DC002B02D0012B0BD021E0134B68
:100700001B68BA79012101FA02F211460F4A0B4324
:10071000136016E00E4B1B68BA79012101FA02F250
:1007200011460B4A0B4313600BE00A4B1B68BA7966
:10073000012101FA02F21146064A0B43136000E060
:1007400000BF00BF0C37BD4680BC70470C0801409D
:100750000C0C01400C10014080B500AF024B1B682F
:10076000984700BF80BD00BF2000002080B500AFCB
:10077000022201210020FFF79FFE02220221002019
:10078000FFF79AFE022206210020FFF795FE0222C3
:1007900005210020FFF790FE022204210020FFF730
:1007A0008BFE022203210020FFF786FE2320FFF7A5
:1007B000E9FD002201210020FFF754FF0022022161
:1007C0000020FFF74FFF002206210020FFF74AFF1D
:1007D000002205210020FFF745FF0122042100200F
:1007E000FFF740FF002203210020FFF73BFF01221B
:1007F00002210020FFF736FF0120FFF7C3FD002292
:1008000002210020FFF72EFF0520FFF7BBFD282067
:1008100000F00BF80E2000F008F8012000F005F8B9
:10082000062000F002F800BF80BD80B582B000AFA6
:100830000346FB71002201210020FFF713FFFB7923
:10084000184600F004F800BF0837BD4680BD80B5EB
:1008500082B000AF0346FB71002202210020FFF7A7
:1008600001FFFB791B09DBB203F00103DBB21A467F
:1008700003210020FFF7F6FEFB795B09DBB203F0F2
:100880000103DBB21A4604210020FFF7EBFEFB79DF
:100890009B09DBB203F00103DBB21A4605210020FD
:1008A000FFF7E0FEFB79DB09DBB21A4606210020E8
:1008B000FFF7D8FE012202210020FFF7D3FE01201E
:1008C000FFF760FD002202210020FFF7CBFE05208C
:1008D000FFF758FDFB7903F00103DBB21A46032151
:1008E0000020FFF7BFFEFB795B08DBB203F00103DA
:1008F000DBB21A4604210020FFF7B4FEFB799B0807
:10090000DBB203F00103DBB21A4605210020FFF73A
:10091000A9FEFB79DB08DBB203F00103DBB21A4668
:1009200006210020FFF79EFE012202210020FFF792
:1009300099FE0120FFF726FD002202210020FFF78B
:1009400091FE0520FFF71EFD00BF0837BD4680BDA4
:1009500080B500AF024B1B68984700BF80BD00BF49
:100960002400002080B400AF0A4B1B68094A43F002
:1009700001031360084B1B68074A23F0010313604F
:10098000054B1B68044A23F00203136000BFBD46F9
:1009900080BC7047001002400410024080B483B055
:1009A00000AF03460A46FB711346BB71BB791F2B90
:1009B0002AD8FB79022B1CD0022B25DC002B02D07D
:1009C000012B0BD020E0134B1B68BA79012101FAEF
:1009D00002F211460F4A0B43136015E00E4B1B68E1
:1009E000BA79012101FA02F211460B4A0B43136056
:1009F0000AE00A4B1B68BA79012101FA02F211469A
:100A0000064A0B43136000BF00BF0C37BD4680BCD5
:100A1000704700BF141002401C1002401810024022
:100A200080B483B000AF0346FB71FB79032B13D86E
:100A30000C4B1B680B4A23F480431360094B1B6863
:100A4000084A23F400431360064B1B68FA799203AB
:100A50001146044A0B43136000BF0C37BD4680BCEF
:100A6000704700BF0410024080B500AF0222012190
:100A70000020FFF721FD022202210020FFF71CFDCC
:100A8000022203210020FFF717FD0222042100208B
:100A9000FFF712FD022205210020FFF70DFD0222C3
:100AA00006210020FFF708FD022207210020FFF7A2
:100AB00003FD022208210020FFF7FEFC022209218B
:100AC0000020FFF7F9FC02220A210020FFF7F4FCC6
:100AD000002209210020FFF7C5FD00220A21002085
:100AE000FFF7C0FD00BF80BD80B584B000AF0346F6
:100AF000FB71FB79632B00F2A883FA79CF4BA3FB40
:100B00000213D9080B469B000B445B00D31AFB72FF
:100B1000FB79CA4AA2FB0323DB08BB720023FB60FC
:100B20008EE3FB7A092B00F2B48101A252F823F084
:100B3000590B0008AB0B0008FD0B00084F0C000818
:100B4000A10C0008F30C0008450D0008970D0008E3
:100B5000E90D0008410E0008012201210020FFF7E5
:100B600081FD012202210020FFF77CFD01220321EB
:100B70000020FFF777FD012204210020FFF772FD1E
:100B8000012205210020FFF76DFD01220621002032
:100B9000FFF768FD002207210020FFF763FD002218
:100BA00008210020FFF75EFD73E1002201210020F3
:100BB000FFF758FD012202210020FFF753FD01221B
:100BC00003210020FFF74EFD002204210020FFF743
:100BD00049FD002205210020FFF744FD00220621E7
:100BE0000020FFF73FFD002207210020FFF73AFD1C
:100BF000002208210020FFF735FD4AE101220121F2
:100C00000020FFF72FFD012202210020FFF72AFD1F
:100C1000002203210020FFF725FD012204210020EE
:100C2000FFF720FD012205210020FFF71BFD002218
:100C300006210020FFF716FD012207210020FFF703
:100C400011FD002208210020FFF70CFD21E1012207
:100C500001210020FFF706FD012202210020FFF7FD
:100C600001FD012203210020FFF7FCFC01220421E9
:100C70000020FFF7F7FC002205210020FFF7F2FC1F
:100C8000002206210020FFF7EDFC012207210020B1
:100C9000FFF7E8FC002208210020FFF7E3FCF8E062
:100CA000002201210020FFF7DDFC012202210020AB
:100CB000FFF7D8FC012203210020FFF7D3FC00221C
:100CC00004210020FFF7CEFC002205210020FFF7C1
:100CD000C9FC012206210020FFF7C4FC01220721E4
:100CE0000020FFF7BFFC002208210020FFF7BAFC1C
:100CF000CFE0012201210020FFF7B4FC00220221F5
:100D00000020FFF7AFFC012203210020FFF7AAFC1F
:100D1000012204210020FFF7A5FC0022052100206C
:100D2000FFF7A0FC012206210020FFF79BFC012217
:100D300007210020FFF796FC002208210020FFF782
:100D400091FCA6E0012201210020FFF78BFC00228C
:100D500002210020FFF786FC012203210020FFF77B
:100D600081FC012204210020FFF77CFC01220521E7
:100D70000020FFF777FC012206210020FFF772FC1C
:100D8000012207210020FFF76DFC0022082100202E
:100D9000FFF768FC7DE0012201210020FFF762FCE3
:100DA000012202210020FFF75DFC01220321002027
:100DB000FFF758FC002204210020FFF753FC00221B
:100DC00005210020FFF74EFC002206210020FFF73E
:100DD00049FC002207210020FFF744FC00220821E3
:100DE0000020FFF73FFC54E0012201210020FFF723
:100DF00039FC012202210020FFF734FC01220321EB
:100E00000020FFF72FFC012204210020FFF72AFC1D
:100E1000012205210020FFF725FC012206210020E8
:100E2000FFF720FC012207210020FFF71BFC002216
:100E300008210020FFF716FC2BE000BFCDCCCCCC66
:100E4000012201210020FFF70DFC012202210020D8
:100E5000FFF708FC012203210020FFF703FC012219
:100E600004210020FFF7FEFB002205210020FFF7F0
:100E7000F9FB012206210020FFF7F4FB01220721E4
:100E80000020FFF7EFFB002208210020FFF7EAFB1C
:100E900000BF012209210020FFF7E4FB00220A2104
:100EA0000020FFF7DFFBC820FFF76CFA00220921C2
:100EB0000020FFF7D7FBBB7A092B00F2B18101A21A
:100EC00052F823F0ED0E00083F0F0008910F0008C4
:100ED000E30F00083510000887100008D91000083B
:100EE0002B1100087D110008CF11000801220121FB
:100EF0000020FFF7B7FB012202210020FFF7B2FB21
:100F0000012203210020FFF7ADFB01220421002074
:100F1000FFF7A8FB012205210020FFF7A3FB012218
:100F200006210020FFF79EFB002207210020FFF78B
:100F300099FB002208210020FFF794FB70E10022BA
:100F400001210020FFF78EFB012202210020FFF784
:100F500089FB012203210020FFF784FB00220421EA
:100F60000020FFF77FFB002205210020FFF77AFB1E
:100F7000002206210020FFF775FB00220721002038
:100F8000FFF770FB002208210020FFF76BFB47E111
:100F9000012201210020FFF765FB01220221002030
:100FA000FFF760FB002203210020FFF75BFB01221B
:100FB00004210020FFF756FB012205210020FFF746
:100FC00051FB002206210020FFF74CFB01220721E4
:100FD0000020FFF747FB002208210020FFF742FB1B
:100FE0001EE1012201210020FFF73CFB012202212A
:100FF0000020FFF737FB012203210020FFF732FB1F
:10100000012204210020FFF72DFB002205210020F2
:10101000FFF728FB002206210020FFF723FB012217
:1010200007210020FFF71EFB002208210020FFF708
:1010300019FBF5E0002201210020FFF713FB01223C
:1010400002210020FFF70EFB012203210020FFF701
:1010500009FB002204210020FFF704FB00220521E8
:101060000020FFF7FFFA012206210020FFF7FAFA1D
:10107000012207210020FFF7F5FA002208210020B5
:10108000FFF7F0FACCE0012201210020FFF7EAFA95
:10109000002202210020FFF7E5FA012203210020AF
:1010A000FFF7E0FA012204210020FFF7DBFA00221B
:1010B00005210020FFF7D6FA012206210020FFF7C4
:1010C000D1FA012207210020FFF7CCFA00220821E3
:1010D0000020FFF7C7FAA3E0012201210020FFF75B
:1010E000C1FA002202210020FFF7BCFA01220321ED
:1010F0000020FFF7B7FA012204210020FFF7B2FA1F
:10110000012205210020FFF7ADFA0122062100206F
:10111000FFF7A8FA012207210020FFF7A3FA002217
:1011200008210020FFF79EFA7AE001220121002029
:10113000FFF798FA012202210020FFF793FA01221B
:1011400003210020FFF78EFA002204210020FFF780
:1011500089FA002205210020FFF784FA00220621E7
:101160000020FFF77FFA002207210020FFF77AFA1C
:10117000002208210020FFF775FA51E00122012129
:101180000020FFF76FFA012202210020FFF76AFA20
:10119000012203210020FFF765FA0122042100202B
:1011A000FFF760FA012205210020FFF75BFA012218
:1011B00006210020FFF756FA012207210020FFF741
:1011C00051FA002208210020FFF74CFA28E0012202
:1011D00001210020FFF746FA012202210020FFF73B
:1011E00041FA012203210020FFF73CFA01220421E9
:1011F0000020FFF737FA002205210020FFF732FA1E
:10120000012206210020FFF72DFA012207210020EC
:10121000FFF728FA002208210020FFF723FA00BF79
:1012200001220A210020FFF71DFAC820FFF7AAF8C3
:1012300000220A210020FFF715FAFB680133FB604A
:10124000FB68132B7FF66DAC00E000BF1037BD4686
:1012500080BD00BF80B483B000AF7860114A7B6866
:101260005360104B1B680F4A43F00103136000E00A
:1012700000BF0C4B1B681B0C03F00103002BF7D0C5
:10128000084B1B68074A23F001031360054B00223B
:101290005A60044B00229A6000BF0C37BD4680BCE8
:1012A000704700BF10E000E080B582B000AF124B85
:1012B0001B78022B11D1114B1B68104A23F002033B
:1012C00013600E4B1B680D4A23F0010313600B4B98
:1012D00000225A60094B00229A60094B1B6898470C
:1012E000064B1B681B0CDBB203F00103FB7100BF54
:1012F0000837BD4680BD00BF2C00002010E000E094
:10130000280000200D488546AFF300800C480D49A9
:101310000D4A002302E0D458C4500433C4188C4250
:10132000F9D30A4A0A4C002301E013600432A242B6
:10133000FBD300F011F8FEF71BFFFEE70050002082
:101340000000002000000020C01300080000002062
:1013500030000020FEE7000070B500260C4D0D4C5B
:10136000641BA410A64209D100F01AF800260A4D09
:101370000A4C641BA410A64205D170BD55F8043B6D
:1013800098470136EEE755F8043B98470136F2E7F7
:10139000B8130008B8130008B8130008BC130008FD
:1013A000F8B500BFF8BC08BC9E467047F8B500BF52
:0813B000F8BC08BC9E46704722
:0413B80055010008D3
:0413BC0031010008F3
:0400000508001305D7
:00000001FF
